{
  "contracts/CompoundERC20Bridge.sol": {
    "CompoundERC20Bridge": {
      "abi": [
        {
          "inputs": [
            {
              "internalType": "address",
              "name": "_rollupProcessor",
              "type": "address"
            },
            {
              "internalType": "address",
              "name": "_cToken",
              "type": "address"
            }
          ],
          "stateMutability": "nonpayable",
          "type": "constructor"
        },
        {
          "inputs": [
            {
              "internalType": "uint256",
              "name": "",
              "type": "uint256"
            }
          ],
          "name": "canFinalise",
          "outputs": [
            {
              "internalType": "bool",
              "name": "",
              "type": "bool"
            }
          ],
          "stateMutability": "view",
          "type": "function"
        },
        {
          "inputs": [
            {
              "components": [
                {
                  "internalType": "uint256",
                  "name": "id",
                  "type": "uint256"
                },
                {
                  "internalType": "address",
                  "name": "erc20Address",
                  "type": "address"
                },
                {
                  "internalType": "enum Types.AztecAssetType",
                  "name": "assetType",
                  "type": "uint8"
                }
              ],
              "internalType": "struct Types.AztecAsset",
              "name": "inputAssetA",
              "type": "tuple"
            },
            {
              "components": [
                {
                  "internalType": "uint256",
                  "name": "id",
                  "type": "uint256"
                },
                {
                  "internalType": "address",
                  "name": "erc20Address",
                  "type": "address"
                },
                {
                  "internalType": "enum Types.AztecAssetType",
                  "name": "assetType",
                  "type": "uint8"
                }
              ],
              "internalType": "struct Types.AztecAsset",
              "name": "",
              "type": "tuple"
            },
            {
              "components": [
                {
                  "internalType": "uint256",
                  "name": "id",
                  "type": "uint256"
                },
                {
                  "internalType": "address",
                  "name": "erc20Address",
                  "type": "address"
                },
                {
                  "internalType": "enum Types.AztecAssetType",
                  "name": "assetType",
                  "type": "uint8"
                }
              ],
              "internalType": "struct Types.AztecAsset",
              "name": "outputAssetA",
              "type": "tuple"
            },
            {
              "components": [
                {
                  "internalType": "uint256",
                  "name": "id",
                  "type": "uint256"
                },
                {
                  "internalType": "address",
                  "name": "erc20Address",
                  "type": "address"
                },
                {
                  "internalType": "enum Types.AztecAssetType",
                  "name": "assetType",
                  "type": "uint8"
                }
              ],
              "internalType": "struct Types.AztecAsset",
              "name": "",
              "type": "tuple"
            },
            {
              "internalType": "uint256",
              "name": "inputValue",
              "type": "uint256"
            },
            {
              "internalType": "uint256",
              "name": "",
              "type": "uint256"
            },
            {
              "internalType": "uint64",
              "name": "",
              "type": "uint64"
            }
          ],
          "name": "convert",
          "outputs": [
            {
              "internalType": "uint256",
              "name": "outputValueA",
              "type": "uint256"
            },
            {
              "internalType": "uint256",
              "name": "",
              "type": "uint256"
            },
            {
              "internalType": "bool",
              "name": "isAsync",
              "type": "bool"
            }
          ],
          "stateMutability": "payable",
          "type": "function"
        },
        {
          "inputs": [
            {
              "components": [
                {
                  "internalType": "uint256",
                  "name": "id",
                  "type": "uint256"
                },
                {
                  "internalType": "address",
                  "name": "erc20Address",
                  "type": "address"
                },
                {
                  "internalType": "enum Types.AztecAssetType",
                  "name": "assetType",
                  "type": "uint8"
                }
              ],
              "internalType": "struct Types.AztecAsset",
              "name": "",
              "type": "tuple"
            },
            {
              "components": [
                {
                  "internalType": "uint256",
                  "name": "id",
                  "type": "uint256"
                },
                {
                  "internalType": "address",
                  "name": "erc20Address",
                  "type": "address"
                },
                {
                  "internalType": "enum Types.AztecAssetType",
                  "name": "assetType",
                  "type": "uint8"
                }
              ],
              "internalType": "struct Types.AztecAsset",
              "name": "",
              "type": "tuple"
            },
            {
              "components": [
                {
                  "internalType": "uint256",
                  "name": "id",
                  "type": "uint256"
                },
                {
                  "internalType": "address",
                  "name": "erc20Address",
                  "type": "address"
                },
                {
                  "internalType": "enum Types.AztecAssetType",
                  "name": "assetType",
                  "type": "uint8"
                }
              ],
              "internalType": "struct Types.AztecAsset",
              "name": "",
              "type": "tuple"
            },
            {
              "components": [
                {
                  "internalType": "uint256",
                  "name": "id",
                  "type": "uint256"
                },
                {
                  "internalType": "address",
                  "name": "erc20Address",
                  "type": "address"
                },
                {
                  "internalType": "enum Types.AztecAssetType",
                  "name": "assetType",
                  "type": "uint8"
                }
              ],
              "internalType": "struct Types.AztecAsset",
              "name": "",
              "type": "tuple"
            },
            {
              "internalType": "uint256",
              "name": "",
              "type": "uint256"
            },
            {
              "internalType": "uint64",
              "name": "",
              "type": "uint64"
            }
          ],
          "name": "finalise",
          "outputs": [
            {
              "internalType": "uint256",
              "name": "",
              "type": "uint256"
            },
            {
              "internalType": "uint256",
              "name": "",
              "type": "uint256"
            }
          ],
          "stateMutability": "payable",
          "type": "function"
        },
        {
          "inputs": [],
          "name": "rollupProcessor",
          "outputs": [
            {
              "internalType": "address",
              "name": "",
              "type": "address"
            }
          ],
          "stateMutability": "view",
          "type": "function"
        },
        {
          "stateMutability": "payable",
          "type": "receive"
        }
      ],
      "evm": {
        "bytecode": {
          "linkReferences": {},
          "object": "60a060405234801561001057600080fd5b506040516105ac3803806105ac83398101604081905261002f91610066565b60609190911b6001600160601b031916608052600080546001600160a01b0319166001600160a01b039092169190911790556100b7565b60008060408385031215610078578182fd5b82516100838161009f565b60208401519092506100948161009f565b809150509250929050565b6001600160a01b03811681146100b457600080fd5b50565b60805160601c6104d46100d86000398060ec528061011d52506104d46000f3fe6080604052600436106100435760003560e01c80632a113d6e1461004f5780635254162b1461007a5780637224f4eb1461009c5780639b07d342146100c95761004a565b3661004a57005b600080fd5b34801561005b57600080fd5b506100646100ea565b60405161007191906103c0565b60405180910390f35b61008d61008836600461027c565b61010e565b60405161007193929190610486565b3480156100a857600080fd5b506100bc6100b7366004610390565b610231565b60405161007191906103d4565b6100dc6100d736600461030c565b610237565b604051610071929190610478565b7f000000000000000000000000000000000000000000000000000000000000000081565b60008080336001600160a01b037f000000000000000000000000000000000000000000000000000000000000000016146101635760405162461bcd60e51b815260040161015a906103df565b60405180910390fd5b506000600161017860608c0160408d01610256565b600381111561018357fe5b14156101a15760405162461bcd60e51b815260040161015a90610422565b60005460405163140e25ad60e31b81526001600160a01b039091169063a0712d68906101d190899060040161046f565b602060405180830381600087803b1580156101eb57600080fd5b505af11580156101ff573d6000803e3d6000fd5b505050506040513d601f19601f8201168201806040525081019061022391906103a8565b509750975097945050505050565b50600090565b600080600080fd5b600060608284031215610250578081fd5b50919050565b600060208284031215610267578081fd5b813560048110610275578182fd5b9392505050565b60008060008060008060006101e0888a031215610297578283fd5b6102a1898961023f565b96506102b08960608a0161023f565b95506102bf8960c08a0161023f565b94506102cf896101208a0161023f565b935061018088013592506101a088013591506101c088013567ffffffffffffffff811681146102fc578182fd5b8091505092959891949750929550565b6000806000806000806101c08789031215610325578182fd5b61032f888861023f565b955061033e886060890161023f565b945061034d8860c0890161023f565b935061035d88610120890161023f565b925061018087013591506101a087013567ffffffffffffffff81168114610382578182fd5b809150509295509295509295565b6000602082840312156103a1578081fd5b5035919050565b6000602082840312156103b9578081fd5b5051919050565b6001600160a01b0391909116815260200190565b901515815260200190565b60208082526023908201527f436f6d706f756e6445524332304272696467653a20494e56414c49445f43414c6040820152622622a960e91b606082015260800190565b6020808252602d908201527f436f6d706f756e6445524332304272696467653a20494e56414c49445f494e5060408201526c55545f41535345545f5459504560981b606082015260800190565b90815260200190565b918252602082015260400190565b9283526020830191909152151560408201526060019056fea2646970667358221220e78d328a5f95c36c53e3a17e649c81895fb5518ba3d9bfa4400a646690c30f9664736f6c634300060a0033",
          "opcodes": "PUSH1 0xA0 PUSH1 0x40 MSTORE CALLVALUE DUP1 ISZERO PUSH2 0x10 JUMPI PUSH1 0x0 DUP1 REVERT JUMPDEST POP PUSH1 0x40 MLOAD PUSH2 0x5AC CODESIZE SUB DUP1 PUSH2 0x5AC DUP4 CODECOPY DUP2 ADD PUSH1 0x40 DUP2 SWAP1 MSTORE PUSH2 0x2F SWAP2 PUSH2 0x66 JUMP JUMPDEST PUSH1 0x60 SWAP2 SWAP1 SWAP2 SHL PUSH1 0x1 PUSH1 0x1 PUSH1 0x60 SHL SUB NOT AND PUSH1 0x80 MSTORE PUSH1 0x0 DUP1 SLOAD PUSH1 0x1 PUSH1 0x1 PUSH1 0xA0 SHL SUB NOT AND PUSH1 0x1 PUSH1 0x1 PUSH1 0xA0 SHL SUB SWAP1 SWAP3 AND SWAP2 SWAP1 SWAP2 OR SWAP1 SSTORE PUSH2 0xB7 JUMP JUMPDEST PUSH1 0x0 DUP1 PUSH1 0x40 DUP4 DUP6 SUB SLT ISZERO PUSH2 0x78 JUMPI DUP2 DUP3 REVERT JUMPDEST DUP3 MLOAD PUSH2 0x83 DUP2 PUSH2 0x9F JUMP JUMPDEST PUSH1 0x20 DUP5 ADD MLOAD SWAP1 SWAP3 POP PUSH2 0x94 DUP2 PUSH2 0x9F JUMP JUMPDEST DUP1 SWAP2 POP POP SWAP3 POP SWAP3 SWAP1 POP JUMP JUMPDEST PUSH1 0x1 PUSH1 0x1 PUSH1 0xA0 SHL SUB DUP2 AND DUP2 EQ PUSH2 0xB4 JUMPI PUSH1 0x0 DUP1 REVERT JUMPDEST POP JUMP JUMPDEST PUSH1 0x80 MLOAD PUSH1 0x60 SHR PUSH2 0x4D4 PUSH2 0xD8 PUSH1 0x0 CODECOPY DUP1 PUSH1 0xEC MSTORE DUP1 PUSH2 0x11D MSTORE POP PUSH2 0x4D4 PUSH1 0x0 RETURN INVALID PUSH1 0x80 PUSH1 0x40 MSTORE PUSH1 0x4 CALLDATASIZE LT PUSH2 0x43 JUMPI PUSH1 0x0 CALLDATALOAD PUSH1 0xE0 SHR DUP1 PUSH4 0x2A113D6E EQ PUSH2 0x4F JUMPI DUP1 PUSH4 0x5254162B EQ PUSH2 0x7A JUMPI DUP1 PUSH4 0x7224F4EB EQ PUSH2 0x9C JUMPI DUP1 PUSH4 0x9B07D342 EQ PUSH2 0xC9 JUMPI PUSH2 0x4A JUMP JUMPDEST CALLDATASIZE PUSH2 0x4A JUMPI STOP JUMPDEST PUSH1 0x0 DUP1 REVERT JUMPDEST CALLVALUE DUP1 ISZERO PUSH2 0x5B JUMPI PUSH1 0x0 DUP1 REVERT JUMPDEST POP PUSH2 0x64 PUSH2 0xEA JUMP JUMPDEST PUSH1 0x40 MLOAD PUSH2 0x71 SWAP2 SWAP1 PUSH2 0x3C0 JUMP JUMPDEST PUSH1 0x40 MLOAD DUP1 SWAP2 SUB SWAP1 RETURN JUMPDEST PUSH2 0x8D PUSH2 0x88 CALLDATASIZE PUSH1 0x4 PUSH2 0x27C JUMP JUMPDEST PUSH2 0x10E JUMP JUMPDEST PUSH1 0x40 MLOAD PUSH2 0x71 SWAP4 SWAP3 SWAP2 SWAP1 PUSH2 0x486 JUMP JUMPDEST CALLVALUE DUP1 ISZERO PUSH2 0xA8 JUMPI PUSH1 0x0 DUP1 REVERT JUMPDEST POP PUSH2 0xBC PUSH2 0xB7 CALLDATASIZE PUSH1 0x4 PUSH2 0x390 JUMP JUMPDEST PUSH2 0x231 JUMP JUMPDEST PUSH1 0x40 MLOAD PUSH2 0x71 SWAP2 SWAP1 PUSH2 0x3D4 JUMP JUMPDEST PUSH2 0xDC PUSH2 0xD7 CALLDATASIZE PUSH1 0x4 PUSH2 0x30C JUMP JUMPDEST PUSH2 0x237 JUMP JUMPDEST PUSH1 0x40 MLOAD PUSH2 0x71 SWAP3 SWAP2 SWAP1 PUSH2 0x478 JUMP JUMPDEST PUSH32 0x0 DUP2 JUMP JUMPDEST PUSH1 0x0 DUP1 DUP1 CALLER PUSH1 0x1 PUSH1 0x1 PUSH1 0xA0 SHL SUB PUSH32 0x0 AND EQ PUSH2 0x163 JUMPI PUSH1 0x40 MLOAD PUSH3 0x461BCD PUSH1 0xE5 SHL DUP2 MSTORE PUSH1 0x4 ADD PUSH2 0x15A SWAP1 PUSH2 0x3DF JUMP JUMPDEST PUSH1 0x40 MLOAD DUP1 SWAP2 SUB SWAP1 REVERT JUMPDEST POP PUSH1 0x0 PUSH1 0x1 PUSH2 0x178 PUSH1 0x60 DUP13 ADD PUSH1 0x40 DUP14 ADD PUSH2 0x256 JUMP JUMPDEST PUSH1 0x3 DUP2 GT ISZERO PUSH2 0x183 JUMPI INVALID JUMPDEST EQ ISZERO PUSH2 0x1A1 JUMPI PUSH1 0x40 MLOAD PUSH3 0x461BCD PUSH1 0xE5 SHL DUP2 MSTORE PUSH1 0x4 ADD PUSH2 0x15A SWAP1 PUSH2 0x422 JUMP JUMPDEST PUSH1 0x0 SLOAD PUSH1 0x40 MLOAD PUSH4 0x140E25AD PUSH1 0xE3 SHL DUP2 MSTORE PUSH1 0x1 PUSH1 0x1 PUSH1 0xA0 SHL SUB SWAP1 SWAP2 AND SWAP1 PUSH4 0xA0712D68 SWAP1 PUSH2 0x1D1 SWAP1 DUP10 SWAP1 PUSH1 0x4 ADD PUSH2 0x46F JUMP JUMPDEST PUSH1 0x20 PUSH1 0x40 MLOAD DUP1 DUP4 SUB DUP2 PUSH1 0x0 DUP8 DUP1 EXTCODESIZE ISZERO DUP1 ISZERO PUSH2 0x1EB JUMPI PUSH1 0x0 DUP1 REVERT JUMPDEST POP GAS CALL ISZERO DUP1 ISZERO PUSH2 0x1FF JUMPI RETURNDATASIZE PUSH1 0x0 DUP1 RETURNDATACOPY RETURNDATASIZE PUSH1 0x0 REVERT JUMPDEST POP POP POP POP PUSH1 0x40 MLOAD RETURNDATASIZE PUSH1 0x1F NOT PUSH1 0x1F DUP3 ADD AND DUP3 ADD DUP1 PUSH1 0x40 MSTORE POP DUP2 ADD SWAP1 PUSH2 0x223 SWAP2 SWAP1 PUSH2 0x3A8 JUMP JUMPDEST POP SWAP8 POP SWAP8 POP SWAP8 SWAP5 POP POP POP POP POP JUMP JUMPDEST POP PUSH1 0x0 SWAP1 JUMP JUMPDEST PUSH1 0x0 DUP1 PUSH1 0x0 DUP1 REVERT JUMPDEST PUSH1 0x0 PUSH1 0x60 DUP3 DUP5 SUB SLT ISZERO PUSH2 0x250 JUMPI DUP1 DUP2 REVERT JUMPDEST POP SWAP2 SWAP1 POP JUMP JUMPDEST PUSH1 0x0 PUSH1 0x20 DUP3 DUP5 SUB SLT ISZERO PUSH2 0x267 JUMPI DUP1 DUP2 REVERT JUMPDEST DUP2 CALLDATALOAD PUSH1 0x4 DUP2 LT PUSH2 0x275 JUMPI DUP2 DUP3 REVERT JUMPDEST SWAP4 SWAP3 POP POP POP JUMP JUMPDEST PUSH1 0x0 DUP1 PUSH1 0x0 DUP1 PUSH1 0x0 DUP1 PUSH1 0x0 PUSH2 0x1E0 DUP9 DUP11 SUB SLT ISZERO PUSH2 0x297 JUMPI DUP3 DUP4 REVERT JUMPDEST PUSH2 0x2A1 DUP10 DUP10 PUSH2 0x23F JUMP JUMPDEST SWAP7 POP PUSH2 0x2B0 DUP10 PUSH1 0x60 DUP11 ADD PUSH2 0x23F JUMP JUMPDEST SWAP6 POP PUSH2 0x2BF DUP10 PUSH1 0xC0 DUP11 ADD PUSH2 0x23F JUMP JUMPDEST SWAP5 POP PUSH2 0x2CF DUP10 PUSH2 0x120 DUP11 ADD PUSH2 0x23F JUMP JUMPDEST SWAP4 POP PUSH2 0x180 DUP9 ADD CALLDATALOAD SWAP3 POP PUSH2 0x1A0 DUP9 ADD CALLDATALOAD SWAP2 POP PUSH2 0x1C0 DUP9 ADD CALLDATALOAD PUSH8 0xFFFFFFFFFFFFFFFF DUP2 AND DUP2 EQ PUSH2 0x2FC JUMPI DUP2 DUP3 REVERT JUMPDEST DUP1 SWAP2 POP POP SWAP3 SWAP6 SWAP9 SWAP2 SWAP5 SWAP8 POP SWAP3 SWAP6 POP JUMP JUMPDEST PUSH1 0x0 DUP1 PUSH1 0x0 DUP1 PUSH1 0x0 DUP1 PUSH2 0x1C0 DUP8 DUP10 SUB SLT ISZERO PUSH2 0x325 JUMPI DUP2 DUP3 REVERT JUMPDEST PUSH2 0x32F DUP9 DUP9 PUSH2 0x23F JUMP JUMPDEST SWAP6 POP PUSH2 0x33E DUP9 PUSH1 0x60 DUP10 ADD PUSH2 0x23F JUMP JUMPDEST SWAP5 POP PUSH2 0x34D DUP9 PUSH1 0xC0 DUP10 ADD PUSH2 0x23F JUMP JUMPDEST SWAP4 POP PUSH2 0x35D DUP9 PUSH2 0x120 DUP10 ADD PUSH2 0x23F JUMP JUMPDEST SWAP3 POP PUSH2 0x180 DUP8 ADD CALLDATALOAD SWAP2 POP PUSH2 0x1A0 DUP8 ADD CALLDATALOAD PUSH8 0xFFFFFFFFFFFFFFFF DUP2 AND DUP2 EQ PUSH2 0x382 JUMPI DUP2 DUP3 REVERT JUMPDEST DUP1 SWAP2 POP POP SWAP3 SWAP6 POP SWAP3 SWAP6 POP SWAP3 SWAP6 JUMP JUMPDEST PUSH1 0x0 PUSH1 0x20 DUP3 DUP5 SUB SLT ISZERO PUSH2 0x3A1 JUMPI DUP1 DUP2 REVERT JUMPDEST POP CALLDATALOAD SWAP2 SWAP1 POP JUMP JUMPDEST PUSH1 0x0 PUSH1 0x20 DUP3 DUP5 SUB SLT ISZERO PUSH2 0x3B9 JUMPI DUP1 DUP2 REVERT JUMPDEST POP MLOAD SWAP2 SWAP1 POP JUMP JUMPDEST PUSH1 0x1 PUSH1 0x1 PUSH1 0xA0 SHL SUB SWAP2 SWAP1 SWAP2 AND DUP2 MSTORE PUSH1 0x20 ADD SWAP1 JUMP JUMPDEST SWAP1 ISZERO ISZERO DUP2 MSTORE PUSH1 0x20 ADD SWAP1 JUMP JUMPDEST PUSH1 0x20 DUP1 DUP3 MSTORE PUSH1 0x23 SWAP1 DUP3 ADD MSTORE PUSH32 0x436F6D706F756E6445524332304272696467653A20494E56414C49445F43414C PUSH1 0x40 DUP3 ADD MSTORE PUSH3 0x2622A9 PUSH1 0xE9 SHL PUSH1 0x60 DUP3 ADD MSTORE PUSH1 0x80 ADD SWAP1 JUMP JUMPDEST PUSH1 0x20 DUP1 DUP3 MSTORE PUSH1 0x2D SWAP1 DUP3 ADD MSTORE PUSH32 0x436F6D706F756E6445524332304272696467653A20494E56414C49445F494E50 PUSH1 0x40 DUP3 ADD MSTORE PUSH13 0x55545F41535345545F54595045 PUSH1 0x98 SHL PUSH1 0x60 DUP3 ADD MSTORE PUSH1 0x80 ADD SWAP1 JUMP JUMPDEST SWAP1 DUP2 MSTORE PUSH1 0x20 ADD SWAP1 JUMP JUMPDEST SWAP2 DUP3 MSTORE PUSH1 0x20 DUP3 ADD MSTORE PUSH1 0x40 ADD SWAP1 JUMP JUMPDEST SWAP3 DUP4 MSTORE PUSH1 0x20 DUP4 ADD SWAP2 SWAP1 SWAP2 MSTORE ISZERO ISZERO PUSH1 0x40 DUP3 ADD MSTORE PUSH1 0x60 ADD SWAP1 JUMP INVALID LOG2 PUSH5 0x6970667358 0x22 SLT KECCAK256 0xE7 DUP14 ORIGIN DUP11 0x5F SWAP6 0xC3 PUSH13 0x53E3A17E649C81895FB5518BA3 0xD9 0xBF LOG4 BLOCKHASH EXP PUSH5 0x6690C30F96 PUSH5 0x736F6C6343 STOP MOD EXP STOP CALLER "
        },
        "methodIdentifiers": {
          "canFinalise(uint256)": "7224f4eb",
          "convert((uint256,address,uint8),(uint256,address,uint8),(uint256,address,uint8),(uint256,address,uint8),uint256,uint256,uint64)": "5254162b",
          "finalise((uint256,address,uint8),(uint256,address,uint8),(uint256,address,uint8),(uint256,address,uint8),uint256,uint64)": "9b07d342",
          "rollupProcessor()": "2a113d6e"
        }
      }
    }
  }
}