{
  "_format": "hh-sol-artifact-1",
  "contractName": "UniswapBridge",
  "sourceName": "contracts/UniswapBridge.sol",
  "abi": [
    {
      "inputs": [
        {
          "internalType": "address",
          "name": "_rollupProcessor",
          "type": "address"
        },
        {
          "internalType": "address",
          "name": "_router",
          "type": "address"
        }
      ],
      "stateMutability": "nonpayable",
      "type": "constructor"
    },
    {
      "inputs": [
        {
          "internalType": "uint256",
          "name": "",
          "type": "uint256"
        }
      ],
      "name": "canFinalise",
      "outputs": [
        {
          "internalType": "bool",
          "name": "",
          "type": "bool"
        }
      ],
      "stateMutability": "view",
      "type": "function"
    },
    {
      "inputs": [
        {
          "components": [
            {
              "internalType": "uint256",
              "name": "id",
              "type": "uint256"
            },
            {
              "internalType": "address",
              "name": "erc20Address",
              "type": "address"
            },
            {
              "internalType": "enum Types.AztecAssetType",
              "name": "assetType",
              "type": "uint8"
            }
          ],
          "internalType": "struct Types.AztecAsset",
          "name": "inputAssetA",
          "type": "tuple"
        },
        {
          "components": [
            {
              "internalType": "uint256",
              "name": "id",
              "type": "uint256"
            },
            {
              "internalType": "address",
              "name": "erc20Address",
              "type": "address"
            },
            {
              "internalType": "enum Types.AztecAssetType",
              "name": "assetType",
              "type": "uint8"
            }
          ],
          "internalType": "struct Types.AztecAsset",
          "name": "",
          "type": "tuple"
        },
        {
          "components": [
            {
              "internalType": "uint256",
              "name": "id",
              "type": "uint256"
            },
            {
              "internalType": "address",
              "name": "erc20Address",
              "type": "address"
            },
            {
              "internalType": "enum Types.AztecAssetType",
              "name": "assetType",
              "type": "uint8"
            }
          ],
          "internalType": "struct Types.AztecAsset",
          "name": "outputAssetA",
          "type": "tuple"
        },
        {
          "components": [
            {
              "internalType": "uint256",
              "name": "id",
              "type": "uint256"
            },
            {
              "internalType": "address",
              "name": "erc20Address",
              "type": "address"
            },
            {
              "internalType": "enum Types.AztecAssetType",
              "name": "assetType",
              "type": "uint8"
            }
          ],
          "internalType": "struct Types.AztecAsset",
          "name": "",
          "type": "tuple"
        },
        {
          "internalType": "uint256",
          "name": "inputValue",
          "type": "uint256"
        },
        {
          "internalType": "uint256",
          "name": "",
          "type": "uint256"
        },
        {
          "internalType": "uint64",
          "name": "",
          "type": "uint64"
        }
      ],
      "name": "convert",
      "outputs": [
        {
          "internalType": "uint256",
          "name": "outputValueA",
          "type": "uint256"
        },
        {
          "internalType": "uint256",
          "name": "",
          "type": "uint256"
        },
        {
          "internalType": "bool",
          "name": "isAsync",
          "type": "bool"
        }
      ],
      "stateMutability": "payable",
      "type": "function"
    },
    {
      "inputs": [
        {
          "components": [
            {
              "internalType": "uint256",
              "name": "id",
              "type": "uint256"
            },
            {
              "internalType": "address",
              "name": "erc20Address",
              "type": "address"
            },
            {
              "internalType": "enum Types.AztecAssetType",
              "name": "assetType",
              "type": "uint8"
            }
          ],
          "internalType": "struct Types.AztecAsset",
          "name": "",
          "type": "tuple"
        },
        {
          "components": [
            {
              "internalType": "uint256",
              "name": "id",
              "type": "uint256"
            },
            {
              "internalType": "address",
              "name": "erc20Address",
              "type": "address"
            },
            {
              "internalType": "enum Types.AztecAssetType",
              "name": "assetType",
              "type": "uint8"
            }
          ],
          "internalType": "struct Types.AztecAsset",
          "name": "",
          "type": "tuple"
        },
        {
          "components": [
            {
              "internalType": "uint256",
              "name": "id",
              "type": "uint256"
            },
            {
              "internalType": "address",
              "name": "erc20Address",
              "type": "address"
            },
            {
              "internalType": "enum Types.AztecAssetType",
              "name": "assetType",
              "type": "uint8"
            }
          ],
          "internalType": "struct Types.AztecAsset",
          "name": "",
          "type": "tuple"
        },
        {
          "components": [
            {
              "internalType": "uint256",
              "name": "id",
              "type": "uint256"
            },
            {
              "internalType": "address",
              "name": "erc20Address",
              "type": "address"
            },
            {
              "internalType": "enum Types.AztecAssetType",
              "name": "assetType",
              "type": "uint8"
            }
          ],
          "internalType": "struct Types.AztecAsset",
          "name": "",
          "type": "tuple"
        },
        {
          "internalType": "uint256",
          "name": "",
          "type": "uint256"
        },
        {
          "internalType": "uint64",
          "name": "",
          "type": "uint64"
        }
      ],
      "name": "finalise",
      "outputs": [
        {
          "internalType": "uint256",
          "name": "",
          "type": "uint256"
        },
        {
          "internalType": "uint256",
          "name": "",
          "type": "uint256"
        }
      ],
      "stateMutability": "payable",
      "type": "function"
    },
    {
      "inputs": [],
      "name": "rollupProcessor",
      "outputs": [
        {
          "internalType": "address",
          "name": "",
          "type": "address"
        }
      ],
      "stateMutability": "view",
      "type": "function"
    },
    {
      "inputs": [],
      "name": "weth",
      "outputs": [
        {
          "internalType": "address",
          "name": "",
          "type": "address"
        }
      ],
      "stateMutability": "view",
      "type": "function"
    },
    {
      "stateMutability": "payable",
      "type": "receive"
    }
  ],
  "bytecode": "0x60a060405234801561001057600080fd5b50604051610bb8380380610bb883398101604081905261002f9161012b565b606082901b6001600160601b031916608052600180546001600160a01b0319166001600160a01b038381169190911791829055604080516315ab88c960e31b81529051929091169163ad5c464891600480820192602092909190829003018186803b15801561009d57600080fd5b505afa1580156100b1573d6000803e3d6000fd5b505050506040513d601f19601f820116820180604052508101906100d591906100fd565b600080546001600160a01b0319166001600160a01b03929092169190911790555061017c9050565b60006020828403121561010e578081fd5b81516001600160a01b0381168114610124578182fd5b9392505050565b6000806040838503121561013d578081fd5b825161014881610164565b602084015190925061015981610164565b809150509250929050565b6001600160a01b038116811461017957600080fd5b50565b60805160601c610a106101a86000398061010c528061014c528061028952806104d05250610a106000f3fe60806040526004361061004e5760003560e01c80632a113d6e1461005a5780633fc8cef3146100855780635254162b1461009a5780637224f4eb146100bc5780639b07d342146100e957610055565b3661005557005b600080fd5b34801561006657600080fd5b5061006f61010a565b60405161007c9190610810565b60405180910390f35b34801561009157600080fd5b5061006f61012e565b6100ad6100a83660046106bf565b61013d565b60405161007c9392919061097b565b3480156100c857600080fd5b506100dc6100d73660046107b5565b610577565b60405161007c919061083d565b6100fc6100f7366004610740565b61057d565b60405161007c92919061096d565b7f000000000000000000000000000000000000000000000000000000000000000081565b6000546001600160a01b031681565b60008080336001600160a01b037f000000000000000000000000000000000000000000000000000000000000000016146101925760405162461bcd60e51b8152600401610189906108fa565b60405180910390fd5b50600060604260016101aa60608e0160408f016106a0565b60038111156101b557fe5b1480156101dc575060026101cf60608c0160408d016106a0565b60038111156101da57fe5b145b1561032857604080516002808252606080830184529260208301908036833750506000805483519394506001600160a01b03169284925061021957fe5b6001600160a01b039092166020928302919091018201526102409060408d01908d016105ba565b8160018151811061024d57fe5b6001600160a01b039283166020918202929092010152600154604051637ff36ab560e01b8152911690637ff36ab5908b906102b39060009086907f0000000000000000000000000000000000000000000000000000000000000000908990600401610848565b6000604051808303818588803b1580156102cc57600080fd5b505af11580156102e0573d6000803e3d6000fd5b50505050506040513d6000823e601f3d908101601f1916820160405261030991908101906105e8565b92508260018151811061031857fe5b6020026020010151955050610568565b600261033a60608e0160408f016106a0565b600381111561034557fe5b14801561036c5750600161035f60608c0160408d016106a0565b600381111561036a57fe5b145b156105505760408051600280825260608083018452926020830190803683370190505090506103a160408e0160208f016105ba565b816000815181106103ae57fe5b6001600160a01b0392831660209182029290920101526000548251911690829060019081106103d957fe5b6001600160a01b039092166020928302919091018201526104009060408f01908f016105ba565b60015460405163095ea7b360e01b81526001600160a01b039283169263095ea7b392610433929116908d90600401610824565b602060405180830381600087803b15801561044d57600080fd5b505af1158015610461573d6000803e3d6000fd5b505050506040513d601f19601f820116820180604052508101906104859190610680565b6104a15760405162461bcd60e51b81526004016101899061087d565b6001546040516318cbafe560e01b81526001600160a01b03909116906318cbafe5906104fa908c9060009086907f0000000000000000000000000000000000000000000000000000000000000000908990600401610931565b600060405180830381600087803b15801561051457600080fd5b505af1158015610528573d6000803e3d6000fd5b505050506040513d6000823e601f3d908101601f1916820160405261030991908101906105e8565b60405162461bcd60e51b8152600401610189906108b4565b50509750975097945050505050565b50600090565b600080600080fd5b600060608284031215610596578081fd5b50919050565b803567ffffffffffffffff811681146105b457600080fd5b92915050565b6000602082840312156105cb578081fd5b81356001600160a01b03811681146105e1578182fd5b9392505050565b600060208083850312156105fa578182fd5b825167ffffffffffffffff811115610610578283fd5b80840185601f820112610621578384fd5b80519150610636610631836109ba565b610993565b8281528381019082850185850284018601891015610652578687fd5b8693505b84841015610674578051835260019390930192918501918501610656565b50979650505050505050565b600060208284031215610691578081fd5b815180151581146105e1578182fd5b6000602082840312156106b1578081fd5b8135600481106105e1578182fd5b60008060008060008060006101e0888a0312156106da578283fd5b6106e48989610585565b96506106f38960608a01610585565b95506107028960c08a01610585565b9450610712896101208a01610585565b935061018088013592506101a08801359150610732896101c08a0161059c565b905092959891949750929550565b6000806000806000806101c08789031215610759578182fd5b6107638888610585565b95506107728860608901610585565b94506107818860c08901610585565b9350610791886101208901610585565b925061018087013591506107a9886101a0890161059c565b90509295509295509295565b6000602082840312156107c6578081fd5b5035919050565b6000815180845260208085019450808401835b838110156108055781516001600160a01b0316875295820195908201906001016107e0565b509495945050505050565b6001600160a01b0391909116815260200190565b6001600160a01b03929092168252602082015260400190565b901515815260200190565b60008582526080602083015261086160808301866107cd565b6001600160a01b03949094166040830152506060015292915050565b6020808252601d908201527f556e69737761704272696467653a20415050524f56455f4641494c4544000000604082015260600190565b60208082526026908201527f556e69737761704272696467653a20494e434f4d50415449424c455f415353456040820152652a2fa820a4a960d11b606082015260800190565b6020808252601d908201527f556e69737761704272696467653a20494e56414c49445f43414c4c4552000000604082015260600190565b600086825285602083015260a0604083015261095060a08301866107cd565b6001600160a01b0394909416606083015250608001529392505050565b918252602082015260400190565b92835260208301919091521515604082015260600190565b60405181810167ffffffffffffffff811182821017156109b257600080fd5b604052919050565b600067ffffffffffffffff8211156109d0578081fd5b506020908102019056fea2646970667358221220723aa057bdaa1018a0b44115ce92fed9eedfb080a6d673991d712e0030be23ff64736f6c634300060a0033",
  "linkReferences": {},
  "deployedLinkReferences": {}
}