{
  "_format": "hh-sol-artifact-1",
  "contractName": "DefiBridgeProxy",
  "sourceName": "contracts/DefiBridgeProxy.sol",
  "abi": [
    {
      "anonymous": false,
      "inputs": [
        {
          "indexed": true,
          "internalType": "address",
          "name": "bridgeAddress",
          "type": "address"
        },
        {
          "indexed": false,
          "internalType": "uint256",
          "name": "outputValueA",
          "type": "uint256"
        },
        {
          "indexed": false,
          "internalType": "uint256",
          "name": "outputValueB",
          "type": "uint256"
        },
        {
          "indexed": false,
          "internalType": "bool",
          "name": "isAsync",
          "type": "bool"
        }
      ],
      "name": "AztecBridgeInteraction",
      "type": "event"
    },
    {
      "inputs": [
        {
          "internalType": "address",
          "name": "bridgeAddress",
          "type": "address"
        },
        {
          "internalType": "uint256",
          "name": "interactionNonce",
          "type": "uint256"
        }
      ],
      "name": "canFinalise",
      "outputs": [
        {
          "internalType": "bool",
          "name": "ready",
          "type": "bool"
        }
      ],
      "stateMutability": "view",
      "type": "function"
    },
    {
      "inputs": [
        {
          "internalType": "address",
          "name": "bridgeAddress",
          "type": "address"
        },
        {
          "components": [
            {
              "internalType": "uint256",
              "name": "id",
              "type": "uint256"
            },
            {
              "internalType": "address",
              "name": "erc20Address",
              "type": "address"
            },
            {
              "internalType": "enum Types.AztecAssetType",
              "name": "assetType",
              "type": "uint8"
            }
          ],
          "internalType": "struct Types.AztecAsset",
          "name": "inputAssetA",
          "type": "tuple"
        },
        {
          "components": [
            {
              "internalType": "uint256",
              "name": "id",
              "type": "uint256"
            },
            {
              "internalType": "address",
              "name": "erc20Address",
              "type": "address"
            },
            {
              "internalType": "enum Types.AztecAssetType",
              "name": "assetType",
              "type": "uint8"
            }
          ],
          "internalType": "struct Types.AztecAsset",
          "name": "inputAssetB",
          "type": "tuple"
        },
        {
          "components": [
            {
              "internalType": "uint256",
              "name": "id",
              "type": "uint256"
            },
            {
              "internalType": "address",
              "name": "erc20Address",
              "type": "address"
            },
            {
              "internalType": "enum Types.AztecAssetType",
              "name": "assetType",
              "type": "uint8"
            }
          ],
          "internalType": "struct Types.AztecAsset",
          "name": "outputAssetA",
          "type": "tuple"
        },
        {
          "components": [
            {
              "internalType": "uint256",
              "name": "id",
              "type": "uint256"
            },
            {
              "internalType": "address",
              "name": "erc20Address",
              "type": "address"
            },
            {
              "internalType": "enum Types.AztecAssetType",
              "name": "assetType",
              "type": "uint8"
            }
          ],
          "internalType": "struct Types.AztecAsset",
          "name": "outputAssetB",
          "type": "tuple"
        },
        {
          "internalType": "uint256",
          "name": "totalInputValue",
          "type": "uint256"
        },
        {
          "internalType": "uint256",
          "name": "interactionNonce",
          "type": "uint256"
        },
        {
          "internalType": "uint256",
          "name": "auxInputData",
          "type": "uint256"
        }
      ],
      "name": "convert",
      "outputs": [
        {
          "internalType": "uint256",
          "name": "outputValueA",
          "type": "uint256"
        },
        {
          "internalType": "uint256",
          "name": "outputValueB",
          "type": "uint256"
        },
        {
          "internalType": "bool",
          "name": "isAsync",
          "type": "bool"
        }
      ],
      "stateMutability": "nonpayable",
      "type": "function"
    },
    {
      "inputs": [
        {
          "internalType": "address",
          "name": "bridgeAddress",
          "type": "address"
        },
        {
          "components": [
            {
              "internalType": "uint256",
              "name": "id",
              "type": "uint256"
            },
            {
              "internalType": "address",
              "name": "erc20Address",
              "type": "address"
            },
            {
              "internalType": "enum Types.AztecAssetType",
              "name": "assetType",
              "type": "uint8"
            }
          ],
          "internalType": "struct Types.AztecAsset",
          "name": "inputAssetA",
          "type": "tuple"
        },
        {
          "components": [
            {
              "internalType": "uint256",
              "name": "id",
              "type": "uint256"
            },
            {
              "internalType": "address",
              "name": "erc20Address",
              "type": "address"
            },
            {
              "internalType": "enum Types.AztecAssetType",
              "name": "assetType",
              "type": "uint8"
            }
          ],
          "internalType": "struct Types.AztecAsset",
          "name": "inputAssetB",
          "type": "tuple"
        },
        {
          "components": [
            {
              "internalType": "uint256",
              "name": "id",
              "type": "uint256"
            },
            {
              "internalType": "address",
              "name": "erc20Address",
              "type": "address"
            },
            {
              "internalType": "enum Types.AztecAssetType",
              "name": "assetType",
              "type": "uint8"
            }
          ],
          "internalType": "struct Types.AztecAsset",
          "name": "outputAssetA",
          "type": "tuple"
        },
        {
          "components": [
            {
              "internalType": "uint256",
              "name": "id",
              "type": "uint256"
            },
            {
              "internalType": "address",
              "name": "erc20Address",
              "type": "address"
            },
            {
              "internalType": "enum Types.AztecAssetType",
              "name": "assetType",
              "type": "uint8"
            }
          ],
          "internalType": "struct Types.AztecAsset",
          "name": "outputAssetB",
          "type": "tuple"
        },
        {
          "internalType": "uint256",
          "name": "interactionNonce",
          "type": "uint256"
        },
        {
          "internalType": "uint256",
          "name": "auxInputData",
          "type": "uint256"
        }
      ],
      "name": "finalise",
      "outputs": [
        {
          "internalType": "uint256",
          "name": "outputValueA",
          "type": "uint256"
        },
        {
          "internalType": "uint256",
          "name": "outputValueB",
          "type": "uint256"
        }
      ],
      "stateMutability": "nonpayable",
      "type": "function"
    },
    {
      "stateMutability": "payable",
      "type": "receive"
    }
  ],
  "bytecode": "0x608060405234801561001057600080fd5b50610cee806100206000396000f3fe6080604052600436106100385760003560e01c806379b5080f14610044578063cc0735571461007a578063d9b5fb79146100a85761003f565b3661003f57005b600080fd5b34801561005057600080fd5b5061006461005f36600461099b565b6100d7565b6040516100719190610a9c565b60405180910390f35b34801561008657600080fd5b5061009a610095366004610892565b610160565b604051610071929190610c6c565b3480156100b457600080fd5b506100c86100c3366004610912565b610468565b60405161007193929190610c7a565b604051637224f4eb60e01b815260009083906001600160a01b03821690637224f4eb90610108908690600401610c63565b60206040518083038186803b15801561012057600080fd5b505afa158015610134573d6000803e3d6000fd5b505050506040513d601f19601f8201168201806040525081019061015891906109c5565b949350505050565b6000808080600361017760608a0160408b016109e1565b600381111561018257fe5b146101a25761019f61019a60408a0160208b01610870565b610794565b91505b60036101b46060890160408a016109e1565b60038111156101bf57fe5b146101da576101d761019a6040890160208a01610870565b90505b604051637224f4eb60e01b81528b906001600160a01b03821690637224f4eb90610208908a90600401610c63565b60206040518083038186803b15801561022057600080fd5b505afa158015610234573d6000803e3d6000fd5b505050506040513d601f19601f8201168201806040525081019061025891906109c5565b61027d5760405162461bcd60e51b815260040161027490610af3565b60405180910390fd5b604051634d83e9a160e11b81526001600160a01b03821690639b07d342906102b3908e908e908e908e908e908e90600401610c09565b6040805180830381600087803b1580156102cc57600080fd5b505af11580156102e0573d6000803e3d6000fd5b505050506040513d601f19601f8201168201806040525081019061030491906109fc565b9095509350600361031b60608b0160408c016109e1565b600381111561032657fe5b1415801561034f5750600061034160608b0160408c016109e1565b600381111561034c57fe5b14155b1561038e5761037061036a61019a60408c0160208d01610870565b846107d3565b851461038e5760405162461bcd60e51b815260040161027490610b61565b60036103a060608a0160408b016109e1565b60038111156103ab57fe5b141580156103d4575060006103c660608a0160408b016109e1565b60038111156103d157fe5b14155b15610413576103f56103ef61019a60408b0160208c01610870565b836107d3565b84146104135760405162461bcd60e51b815260040161027490610b61565b8b6001600160a01b03167f1f69dd4d25d71e16962ebbdc1534be51b469874ca1bc8cf79ab171635fddad488686600060405161045193929190610c7a565b60405180910390a250505097509795505050505050565b60008080600261047e60608c0160408d016109e1565b600381111561048957fe5b14156104a9576104a96104a260408c0160208d01610870565b8c88610800565b60026104bb60608b0160408c016109e1565b60038111156104c657fe5b14156104df576104df6104a260408b0160208c01610870565b60008060036104f460608c0160408d016109e1565b60038111156104ff57fe5b1461051a5761051761019a60408c0160208d01610870565b91505b600361052c60608b0160408c016109e1565b600381111561053757fe5b146105525761054f61019a60408b0160208c01610870565b90505b8c6001600160a01b038116635254162b60018f604001602081019061057791906109e1565b600381111561058257fe5b1461058e576000610590565b8a5b8f8f8f8f8f8f8f6040518963ffffffff1660e01b81526004016105b99796959493929190610ba7565b6060604051808303818588803b1580156105d257600080fd5b505af11580156105e6573d6000803e3d6000fd5b50505050506040513d601f19601f8201168201806040525081019061060b9190610a1f565b91975095509350600361062460608d0160408e016109e1565b600381111561062f57fe5b141580156106585750600061064a60608d0160408e016109e1565b600381111561065557fe5b14155b156106915761067361036a61019a60408e0160208f01610870565b86146106915760405162461bcd60e51b815260040161027490610b61565b60036106a360608c0160408d016109e1565b60038111156106ae57fe5b141580156106d7575060006106c960608c0160408d016109e1565b60038111156106d457fe5b14155b15610710576106f26103ef61019a60408d0160208e01610870565b85146107105760405162461bcd60e51b815260040161027490610b61565b831561073e5785158015610722575084155b61073e5760405162461bcd60e51b815260040161027490610aa7565b8d6001600160a01b03167f1f69dd4d25d71e16962ebbdc1534be51b469874ca1bc8cf79ab171635fddad4887878760405161077b93929190610c7a565b60405180910390a2505050985098509895505050505050565b60008161079f575030315b81156107ce576040516370a0823160e01b8152306004820152602081602483865afa6107ca57600080fd5b5190505b919050565b6000828211156107f55760405162461bcd60e51b815260040161027490610b2a565b508082035b92915050565b60405163a9059cbb60e01b81528260048201528160248201526000816044836000885af161082d57600080fd5b50505050565b80356001600160a01b03811681146107fa57600080fd5b8035600481106107fa57600080fd5b60006060828403121561086a578081fd5b50919050565b600060208284031215610881578081fd5b61088b8383610833565b9392505050565b60008060008060008060006101e0888a0312156108ad578283fd5b6108b78989610833565b96506108c68960208a01610859565b95506108d58960808a01610859565b94506108e48960e08a01610859565b93506108f4896101408a01610859565b92506101a088013591506101c0880135905092959891949750929550565b600080600080600080600080610200898b03121561092e578081fd5b883561093981610c92565b97506109488a60208b01610859565b96506109578a60808b01610859565b95506109668a60e08b01610859565b94506109768a6101408b01610859565b979a96995094979396956101a085013595506101c0850135946101e001359350915050565b600080604083850312156109ad578182fd5b6109b78484610833565b946020939093013593505050565b6000602082840312156109d6578081fd5b815161088b81610caa565b6000602082840312156109f2578081fd5b61088b838361084a565b60008060408385031215610a0e578182fd5b505080516020909101519092909150565b600080600060608486031215610a33578283fd5b83519250602084015191506040840151610a4c81610caa565b809150509250925092565b803582526020810135610a6981610c92565b6001600160a01b03166020830152610a87606082016040830161084a565b60048110610a9157fe5b806040840152505050565b901515815260200190565b6020808252602c908201527f4465666942726964676550726f78793a204153594e435f4e4f4e5a45524f5f4f60408201526b55545055545f56414c55455360a01b606082015260800190565b6020808252601a908201527f4465666942726964676550726f78793a204e4f545f5245414459000000000000604082015260600190565b6020808252601e908201527f536166654d6174683a207375627472616374696f6e206f766572666c6f770000604082015260600190565b60208082526026908201527f4465666942726964676550726f78793a20494e434f52524543545f41535345546040820152655f56414c554560d01b606082015260800190565b6101e08101610bb6828a610a57565b610bc36060830189610a57565b610bd060c0830188610a57565b610bde610120830187610a57565b84610180830152836101a083015267ffffffffffffffff83166101c083015298975050505050505050565b6101c08101610c188289610a57565b610c256060830188610a57565b610c3260c0830187610a57565b610c40610120830186610a57565b8361018083015267ffffffffffffffff83166101a0830152979650505050505050565b90815260200190565b918252602082015260400190565b92835260208301919091521515604082015260600190565b6001600160a01b0381168114610ca757600080fd5b50565b8015158114610ca757600080fdfea26469706673582212206f6278eeb339bd904bc725059df28ebf274f0e61d9a55e5487c334ee9a90d53d64736f6c634300060a0033",
  "linkReferences": {},
  "deployedLinkReferences": {}
}