{
  "_format": "hh-sol-artifact-1",
  "contractName": "DefiBridgeProxy",
  "sourceName": "contracts/DefiBridgeProxy.sol",
  "abi": [
    {
      "anonymous": false,
      "inputs": [
        {
          "indexed": true,
          "internalType": "address",
          "name": "bridgeAddress",
          "type": "address"
        },
        {
          "indexed": false,
          "internalType": "uint256",
          "name": "outputValueA",
          "type": "uint256"
        },
        {
          "indexed": false,
          "internalType": "uint256",
          "name": "outputValueB",
          "type": "uint256"
        },
        {
          "indexed": false,
          "internalType": "bool",
          "name": "isAsync",
          "type": "bool"
        }
      ],
      "name": "AztecBridgeInteraction",
      "type": "event"
    },
    {
      "inputs": [
        {
          "internalType": "address",
          "name": "bridgeAddress",
          "type": "address"
        },
        {
          "internalType": "uint256",
          "name": "interactionNonce",
          "type": "uint256"
        }
      ],
      "name": "canFinalise",
      "outputs": [
        {
          "internalType": "bool",
          "name": "ready",
          "type": "bool"
        }
      ],
      "stateMutability": "view",
      "type": "function"
    },
    {
      "inputs": [
        {
          "internalType": "address",
          "name": "bridgeAddress",
          "type": "address"
        },
        {
          "components": [
            {
              "internalType": "uint256",
              "name": "id",
              "type": "uint256"
            },
            {
              "internalType": "address",
              "name": "erc20Address",
              "type": "address"
            },
            {
              "internalType": "enum Types.AztecAssetType",
              "name": "assetType",
              "type": "uint8"
            }
          ],
          "internalType": "struct Types.AztecAsset",
          "name": "inputAssetA",
          "type": "tuple"
        },
        {
          "components": [
            {
              "internalType": "uint256",
              "name": "id",
              "type": "uint256"
            },
            {
              "internalType": "address",
              "name": "erc20Address",
              "type": "address"
            },
            {
              "internalType": "enum Types.AztecAssetType",
              "name": "assetType",
              "type": "uint8"
            }
          ],
          "internalType": "struct Types.AztecAsset",
          "name": "inputAssetB",
          "type": "tuple"
        },
        {
          "components": [
            {
              "internalType": "uint256",
              "name": "id",
              "type": "uint256"
            },
            {
              "internalType": "address",
              "name": "erc20Address",
              "type": "address"
            },
            {
              "internalType": "enum Types.AztecAssetType",
              "name": "assetType",
              "type": "uint8"
            }
          ],
          "internalType": "struct Types.AztecAsset",
          "name": "outputAssetA",
          "type": "tuple"
        },
        {
          "components": [
            {
              "internalType": "uint256",
              "name": "id",
              "type": "uint256"
            },
            {
              "internalType": "address",
              "name": "erc20Address",
              "type": "address"
            },
            {
              "internalType": "enum Types.AztecAssetType",
              "name": "assetType",
              "type": "uint8"
            }
          ],
          "internalType": "struct Types.AztecAsset",
          "name": "outputAssetB",
          "type": "tuple"
        },
        {
          "internalType": "uint256",
          "name": "totalInputValue",
          "type": "uint256"
        },
        {
          "internalType": "uint256",
          "name": "interactionNonce",
          "type": "uint256"
        },
        {
          "internalType": "uint256",
          "name": "auxInputData",
          "type": "uint256"
        }
      ],
      "name": "convert",
      "outputs": [
        {
          "internalType": "uint256",
          "name": "outputValueA",
          "type": "uint256"
        },
        {
          "internalType": "uint256",
          "name": "outputValueB",
          "type": "uint256"
        },
        {
          "internalType": "bool",
          "name": "isAsync",
          "type": "bool"
        }
      ],
      "stateMutability": "nonpayable",
      "type": "function"
    },
    {
      "inputs": [
        {
          "internalType": "address",
          "name": "bridgeAddress",
          "type": "address"
        },
        {
          "components": [
            {
              "internalType": "uint256",
              "name": "id",
              "type": "uint256"
            },
            {
              "internalType": "address",
              "name": "erc20Address",
              "type": "address"
            },
            {
              "internalType": "enum Types.AztecAssetType",
              "name": "assetType",
              "type": "uint8"
            }
          ],
          "internalType": "struct Types.AztecAsset",
          "name": "outputAssetA",
          "type": "tuple"
        },
        {
          "components": [
            {
              "internalType": "uint256",
              "name": "id",
              "type": "uint256"
            },
            {
              "internalType": "address",
              "name": "erc20Address",
              "type": "address"
            },
            {
              "internalType": "enum Types.AztecAssetType",
              "name": "assetType",
              "type": "uint8"
            }
          ],
          "internalType": "struct Types.AztecAsset",
          "name": "outputAssetB",
          "type": "tuple"
        },
        {
          "internalType": "uint256",
          "name": "interactionNonce",
          "type": "uint256"
        }
      ],
      "name": "finalise",
      "outputs": [
        {
          "internalType": "uint256",
          "name": "outputValueA",
          "type": "uint256"
        },
        {
          "internalType": "uint256",
          "name": "outputValueB",
          "type": "uint256"
        }
      ],
      "stateMutability": "nonpayable",
      "type": "function"
    },
    {
      "stateMutability": "payable",
      "type": "receive"
    }
  ],
  "bytecode": "0x608060405234801561001057600080fd5b50610c55806100206000396000f3fe6080604052600436106100385760003560e01c8063141551681461004457806379b5080f1461007b578063d9b5fb79146100a85761003f565b3661003f57005b600080fd5b34801561005057600080fd5b5061006461005f36600461090d565b6100d7565b604051610072929190610bd3565b60405180910390f35b34801561008757600080fd5b5061009b61009636600461095c565b6103d2565b6040516100729190610a5d565b3480156100b457600080fd5b506100c86100c3366004610885565b61045b565b60405161007293929190610be1565b600080808060036100ee6060890160408a016109a2565b60038111156100f957fe5b14610119576101166101116040890160208a01610863565b610787565b91505b600361012b60608801604089016109a2565b600381111561013657fe5b146101515761014e6101116040880160208901610863565b90505b604051637224f4eb60e01b815288906001600160a01b03821690637224f4eb9061017f908990600401610bca565b60206040518083038186803b15801561019757600080fd5b505afa1580156101ab573d6000803e3d6000fd5b505050506040513d601f19601f820116820180604052508101906101cf9190610986565b6101f45760405162461bcd60e51b81526004016101eb90610ab4565b60405180910390fd5b6040516335baedef60e11b81526001600160a01b03821690636b75dbde90610220908990600401610bca565b6040805180830381600087803b15801561023957600080fd5b505af115801561024d573d6000803e3d6000fd5b505050506040513d601f19601f8201168201806040525081019061027191906109bd565b9095509350600361028860608a0160408b016109a2565b600381111561029357fe5b141580156102bc575060006102ae60608a0160408b016109a2565b60038111156102b957fe5b14155b156102fb576102dd6102d761011160408b0160208c01610863565b846107c6565b85146102fb5760405162461bcd60e51b81526004016101eb90610b22565b600361030d6060890160408a016109a2565b600381111561031857fe5b14158015610341575060006103336060890160408a016109a2565b600381111561033e57fe5b14155b156103805761036261035c61011160408a0160208b01610863565b836107c6565b84146103805760405162461bcd60e51b81526004016101eb90610b22565b886001600160a01b03167f1f69dd4d25d71e16962ebbdc1534be51b469874ca1bc8cf79ab171635fddad48868660006040516103be93929190610be1565b60405180910390a250505094509492505050565b604051637224f4eb60e01b815260009083906001600160a01b03821690637224f4eb90610403908690600401610bca565b60206040518083038186803b15801561041b57600080fd5b505afa15801561042f573d6000803e3d6000fd5b505050506040513d601f19601f820116820180604052508101906104539190610986565b949350505050565b60008080600261047160608c0160408d016109a2565b600381111561047c57fe5b141561049c5761049c61049560408c0160208d01610863565b8c886107f3565b60026104ae60608b0160408c016109a2565b60038111156104b957fe5b14156104d2576104d261049560408b0160208c01610863565b60008060036104e760608c0160408d016109a2565b60038111156104f257fe5b1461050d5761050a61011160408c0160208d01610863565b91505b600361051f60608b0160408c016109a2565b600381111561052a57fe5b146105455761054261011160408b0160208c01610863565b90505b8c6001600160a01b038116635254162b60018f604001602081019061056a91906109a2565b600381111561057557fe5b14610581576000610583565b8a5b8f8f8f8f8f8f8f6040518963ffffffff1660e01b81526004016105ac9796959493929190610b68565b6060604051808303818588803b1580156105c557600080fd5b505af11580156105d9573d6000803e3d6000fd5b50505050506040513d601f19601f820116820180604052508101906105fe91906109e0565b91975095509350600361061760608d0160408e016109a2565b600381111561062257fe5b1415801561064b5750600061063d60608d0160408e016109a2565b600381111561064857fe5b14155b15610684576106666102d761011160408e0160208f01610863565b86146106845760405162461bcd60e51b81526004016101eb90610b22565b600361069660608c0160408d016109a2565b60038111156106a157fe5b141580156106ca575060006106bc60608c0160408d016109a2565b60038111156106c757fe5b14155b15610703576106e561035c61011160408d0160208e01610863565b85146107035760405162461bcd60e51b81526004016101eb90610b22565b83156107315785158015610715575084155b6107315760405162461bcd60e51b81526004016101eb90610a68565b8d6001600160a01b03167f1f69dd4d25d71e16962ebbdc1534be51b469874ca1bc8cf79ab171635fddad4887878760405161076e93929190610be1565b60405180910390a2505050985098509895505050505050565b600081610792575030315b81156107c1576040516370a0823160e01b8152306004820152602081602483865afa6107bd57600080fd5b5190505b919050565b6000828211156107e85760405162461bcd60e51b81526004016101eb90610aeb565b508082035b92915050565b60405163a9059cbb60e01b81528260048201528160248201526000816044836000885af161082057600080fd5b50505050565b80356001600160a01b03811681146107ed57600080fd5b8035600481106107ed57600080fd5b60006060828403121561085d578081fd5b50919050565b600060208284031215610874578081fd5b61087e8383610826565b9392505050565b600080600080600080600080610200898b0312156108a1578384fd5b6108ab8a8a610826565b97506108ba8a60208b0161084c565b96506108c98a60808b0161084c565b95506108d88a60e08b0161084c565b94506108e88a6101408b0161084c565b979a96995094979396956101a085013595506101c0850135946101e001359350915050565b6000806000806101008587031215610923578384fd5b843561092e81610bf9565b935061093d866020870161084c565b925061094c866080870161084c565b9396929550929360e00135925050565b6000806040838503121561096e578182fd5b6109788484610826565b946020939093013593505050565b600060208284031215610997578081fd5b815161087e81610c11565b6000602082840312156109b3578081fd5b61087e838361083d565b600080604083850312156109cf578182fd5b505080516020909101519092909150565b6000806000606084860312156109f4578283fd5b83519250602084015191506040840151610a0d81610c11565b809150509250925092565b803582526020810135610a2a81610bf9565b6001600160a01b03166020830152610a48606082016040830161083d565b60048110610a5257fe5b806040840152505050565b901515815260200190565b6020808252602c908201527f4465666942726964676550726f78793a204153594e435f4e4f4e5a45524f5f4f60408201526b55545055545f56414c55455360a01b606082015260800190565b6020808252601a908201527f4465666942726964676550726f78793a204e4f545f5245414459000000000000604082015260600190565b6020808252601e908201527f536166654d6174683a207375627472616374696f6e206f766572666c6f770000604082015260600190565b60208082526026908201527f4465666942726964676550726f78793a20494e434f52524543545f41535345546040820152655f56414c554560d01b606082015260800190565b6101e08101610b77828a610a18565b610b846060830189610a18565b610b9160c0830188610a18565b610b9f610120830187610a18565b84610180830152836101a083015267ffffffffffffffff83166101c083015298975050505050505050565b90815260200190565b918252602082015260400190565b92835260208301919091521515604082015260600190565b6001600160a01b0381168114610c0e57600080fd5b50565b8015158114610c0e57600080fdfea2646970667358221220460a897fa7bd3832811eb95f4cff360900f3d263713e29d7f388b3eed68426fe64736f6c634300060a0033",
  "linkReferences": {},
  "deployedLinkReferences": {}
}