{
  "_format": "hh-sol-artifact-1",
  "contractName": "CompoundBridge",
  "sourceName": "contracts/CompoundBridge.sol",
  "abi": [
    {
      "inputs": [
        {
          "internalType": "address",
          "name": "_rollupProcessor",
          "type": "address"
        }
      ],
      "stateMutability": "nonpayable",
      "type": "constructor"
    },
    {
      "inputs": [
        {
          "internalType": "uint256",
          "name": "",
          "type": "uint256"
        }
      ],
      "name": "canFinalise",
      "outputs": [
        {
          "internalType": "bool",
          "name": "",
          "type": "bool"
        }
      ],
      "stateMutability": "view",
      "type": "function"
    },
    {
      "inputs": [
        {
          "components": [
            {
              "internalType": "uint256",
              "name": "id",
              "type": "uint256"
            },
            {
              "internalType": "address",
              "name": "erc20Address",
              "type": "address"
            },
            {
              "internalType": "enum Types.AztecAssetType",
              "name": "assetType",
              "type": "uint8"
            }
          ],
          "internalType": "struct Types.AztecAsset",
          "name": "inputAssetA",
          "type": "tuple"
        },
        {
          "components": [
            {
              "internalType": "uint256",
              "name": "id",
              "type": "uint256"
            },
            {
              "internalType": "address",
              "name": "erc20Address",
              "type": "address"
            },
            {
              "internalType": "enum Types.AztecAssetType",
              "name": "assetType",
              "type": "uint8"
            }
          ],
          "internalType": "struct Types.AztecAsset",
          "name": "",
          "type": "tuple"
        },
        {
          "components": [
            {
              "internalType": "uint256",
              "name": "id",
              "type": "uint256"
            },
            {
              "internalType": "address",
              "name": "erc20Address",
              "type": "address"
            },
            {
              "internalType": "enum Types.AztecAssetType",
              "name": "assetType",
              "type": "uint8"
            }
          ],
          "internalType": "struct Types.AztecAsset",
          "name": "outputAssetA",
          "type": "tuple"
        },
        {
          "components": [
            {
              "internalType": "uint256",
              "name": "id",
              "type": "uint256"
            },
            {
              "internalType": "address",
              "name": "erc20Address",
              "type": "address"
            },
            {
              "internalType": "enum Types.AztecAssetType",
              "name": "assetType",
              "type": "uint8"
            }
          ],
          "internalType": "struct Types.AztecAsset",
          "name": "",
          "type": "tuple"
        },
        {
          "internalType": "uint256",
          "name": "inputValue",
          "type": "uint256"
        },
        {
          "internalType": "uint256",
          "name": "",
          "type": "uint256"
        },
        {
          "internalType": "uint64",
          "name": "",
          "type": "uint64"
        }
      ],
      "name": "convert",
      "outputs": [
        {
          "internalType": "uint256",
          "name": "outputValueA",
          "type": "uint256"
        },
        {
          "internalType": "uint256",
          "name": "",
          "type": "uint256"
        },
        {
          "internalType": "bool",
          "name": "isAsync",
          "type": "bool"
        }
      ],
      "stateMutability": "payable",
      "type": "function"
    },
    {
      "inputs": [
        {
          "components": [
            {
              "internalType": "uint256",
              "name": "id",
              "type": "uint256"
            },
            {
              "internalType": "address",
              "name": "erc20Address",
              "type": "address"
            },
            {
              "internalType": "enum Types.AztecAssetType",
              "name": "assetType",
              "type": "uint8"
            }
          ],
          "internalType": "struct Types.AztecAsset",
          "name": "",
          "type": "tuple"
        },
        {
          "components": [
            {
              "internalType": "uint256",
              "name": "id",
              "type": "uint256"
            },
            {
              "internalType": "address",
              "name": "erc20Address",
              "type": "address"
            },
            {
              "internalType": "enum Types.AztecAssetType",
              "name": "assetType",
              "type": "uint8"
            }
          ],
          "internalType": "struct Types.AztecAsset",
          "name": "",
          "type": "tuple"
        },
        {
          "components": [
            {
              "internalType": "uint256",
              "name": "id",
              "type": "uint256"
            },
            {
              "internalType": "address",
              "name": "erc20Address",
              "type": "address"
            },
            {
              "internalType": "enum Types.AztecAssetType",
              "name": "assetType",
              "type": "uint8"
            }
          ],
          "internalType": "struct Types.AztecAsset",
          "name": "",
          "type": "tuple"
        },
        {
          "components": [
            {
              "internalType": "uint256",
              "name": "id",
              "type": "uint256"
            },
            {
              "internalType": "address",
              "name": "erc20Address",
              "type": "address"
            },
            {
              "internalType": "enum Types.AztecAssetType",
              "name": "assetType",
              "type": "uint8"
            }
          ],
          "internalType": "struct Types.AztecAsset",
          "name": "",
          "type": "tuple"
        },
        {
          "internalType": "uint256",
          "name": "",
          "type": "uint256"
        },
        {
          "internalType": "uint64",
          "name": "",
          "type": "uint64"
        }
      ],
      "name": "finalise",
      "outputs": [
        {
          "internalType": "uint256",
          "name": "",
          "type": "uint256"
        },
        {
          "internalType": "uint256",
          "name": "",
          "type": "uint256"
        }
      ],
      "stateMutability": "payable",
      "type": "function"
    },
    {
      "inputs": [],
      "name": "rollupProcessor",
      "outputs": [
        {
          "internalType": "address",
          "name": "",
          "type": "address"
        }
      ],
      "stateMutability": "view",
      "type": "function"
    },
    {
      "stateMutability": "payable",
      "type": "receive"
    }
  ],
  "bytecode": "0x60a0604052600080546001600160a01b031916736c8c6b02e7b2be14d4fa6022dfd6d75921d90e4e17905534801561003657600080fd5b506040516105fd3803806105fd8339810160408190526100559161006a565b60601b6001600160601b031916608052610098565b60006020828403121561007b578081fd5b81516001600160a01b0381168114610091578182fd5b9392505050565b60805160601c6105446100b96000398060ec528061011d52506105446000f3fe6080604052600436106100435760003560e01c80632a113d6e1461004f5780635254162b1461007a5780637224f4eb1461009c5780639b07d342146100c95761004a565b3661004a57005b600080fd5b34801561005b57600080fd5b506100646100ea565b60405161007191906103f8565b60405180910390f35b61008d6100883660046102b4565b61010e565b604051610071939291906104f6565b3480156100a857600080fd5b506100bc6100b73660046103c8565b610269565b604051610071919061040c565b6100dc6100d7366004610344565b61026f565b6040516100719291906104e8565b7f000000000000000000000000000000000000000000000000000000000000000081565b60008080336001600160a01b037f000000000000000000000000000000000000000000000000000000000000000016146101635760405162461bcd60e51b815260040161015a90610417565b60405180910390fd5b600261017560608c0160408d0161028e565b600381111561018057fe5b1461019d5760405162461bcd60e51b815260040161015a90610497565b60026101af60608a0160408b0161028e565b60038111156101ba57fe5b146101d75760405162461bcd60e51b815260040161015a9061044e565b506000805460405163140e25ad60e31b81526001600160a01b039091169063a0712d68906102099089906004016104df565b602060405180830381600087803b15801561022357600080fd5b505af1158015610237573d6000803e3d6000fd5b505050506040513d601f19601f8201168201806040525081019061025b91906103e0565b509750975097945050505050565b50600090565b600080600080fd5b600060608284031215610288578081fd5b50919050565b60006020828403121561029f578081fd5b8135600481106102ad578182fd5b9392505050565b60008060008060008060006101e0888a0312156102cf578283fd5b6102d98989610277565b96506102e88960608a01610277565b95506102f78960c08a01610277565b9450610307896101208a01610277565b935061018088013592506101a088013591506101c088013567ffffffffffffffff81168114610334578182fd5b8091505092959891949750929550565b6000806000806000806101c0878903121561035d578182fd5b6103678888610277565b95506103768860608901610277565b94506103858860c08901610277565b9350610395886101208901610277565b925061018087013591506101a087013567ffffffffffffffff811681146103ba578182fd5b809150509295509295509295565b6000602082840312156103d9578081fd5b5035919050565b6000602082840312156103f1578081fd5b5051919050565b6001600160a01b0391909116815260200190565b901515815260200190565b6020808252601e908201527f436f6d706f756e644272696467653a20494e56414c49445f43414c4c45520000604082015260600190565b60208082526029908201527f436f6d706f756e644272696467653a20494e56414c49445f4f55545055545f41604082015268535345545f5459504560b81b606082015260800190565b60208082526028908201527f436f6d706f756e644272696467653a20494e56414c49445f494e5055545f41536040820152675345545f5459504560c01b606082015260800190565b90815260200190565b918252602082015260400190565b9283526020830191909152151560408201526060019056fea2646970667358221220930db1829ae2fda24e0480259434fa3fda2aa3b4b1ed46f89382eb28d974dbf764736f6c634300060a0033",
  "linkReferences": {},
  "deployedLinkReferences": {}
}