{
  "_format": "hh-sol-artifact-1",
  "contractName": "CompoundERC20Bridge",
  "sourceName": "contracts/CompoundERC20Bridge.sol",
  "abi": [
    {
      "inputs": [
        {
          "internalType": "address",
          "name": "_rollupProcessor",
          "type": "address"
        },
        {
          "internalType": "address",
          "name": "_cToken",
          "type": "address"
        }
      ],
      "stateMutability": "nonpayable",
      "type": "constructor"
    },
    {
      "inputs": [
        {
          "internalType": "uint256",
          "name": "",
          "type": "uint256"
        }
      ],
      "name": "canFinalise",
      "outputs": [
        {
          "internalType": "bool",
          "name": "",
          "type": "bool"
        }
      ],
      "stateMutability": "view",
      "type": "function"
    },
    {
      "inputs": [
        {
          "components": [
            {
              "internalType": "uint256",
              "name": "id",
              "type": "uint256"
            },
            {
              "internalType": "address",
              "name": "erc20Address",
              "type": "address"
            },
            {
              "internalType": "enum Types.AztecAssetType",
              "name": "assetType",
              "type": "uint8"
            }
          ],
          "internalType": "struct Types.AztecAsset",
          "name": "inputAssetA",
          "type": "tuple"
        },
        {
          "components": [
            {
              "internalType": "uint256",
              "name": "id",
              "type": "uint256"
            },
            {
              "internalType": "address",
              "name": "erc20Address",
              "type": "address"
            },
            {
              "internalType": "enum Types.AztecAssetType",
              "name": "assetType",
              "type": "uint8"
            }
          ],
          "internalType": "struct Types.AztecAsset",
          "name": "",
          "type": "tuple"
        },
        {
          "components": [
            {
              "internalType": "uint256",
              "name": "id",
              "type": "uint256"
            },
            {
              "internalType": "address",
              "name": "erc20Address",
              "type": "address"
            },
            {
              "internalType": "enum Types.AztecAssetType",
              "name": "assetType",
              "type": "uint8"
            }
          ],
          "internalType": "struct Types.AztecAsset",
          "name": "outputAssetA",
          "type": "tuple"
        },
        {
          "components": [
            {
              "internalType": "uint256",
              "name": "id",
              "type": "uint256"
            },
            {
              "internalType": "address",
              "name": "erc20Address",
              "type": "address"
            },
            {
              "internalType": "enum Types.AztecAssetType",
              "name": "assetType",
              "type": "uint8"
            }
          ],
          "internalType": "struct Types.AztecAsset",
          "name": "",
          "type": "tuple"
        },
        {
          "internalType": "uint256",
          "name": "inputValue",
          "type": "uint256"
        },
        {
          "internalType": "uint256",
          "name": "",
          "type": "uint256"
        },
        {
          "internalType": "uint64",
          "name": "",
          "type": "uint64"
        }
      ],
      "name": "convert",
      "outputs": [
        {
          "internalType": "uint256",
          "name": "outputValueA",
          "type": "uint256"
        },
        {
          "internalType": "uint256",
          "name": "",
          "type": "uint256"
        },
        {
          "internalType": "bool",
          "name": "isAsync",
          "type": "bool"
        }
      ],
      "stateMutability": "payable",
      "type": "function"
    },
    {
      "inputs": [
        {
          "components": [
            {
              "internalType": "uint256",
              "name": "id",
              "type": "uint256"
            },
            {
              "internalType": "address",
              "name": "erc20Address",
              "type": "address"
            },
            {
              "internalType": "enum Types.AztecAssetType",
              "name": "assetType",
              "type": "uint8"
            }
          ],
          "internalType": "struct Types.AztecAsset",
          "name": "",
          "type": "tuple"
        },
        {
          "components": [
            {
              "internalType": "uint256",
              "name": "id",
              "type": "uint256"
            },
            {
              "internalType": "address",
              "name": "erc20Address",
              "type": "address"
            },
            {
              "internalType": "enum Types.AztecAssetType",
              "name": "assetType",
              "type": "uint8"
            }
          ],
          "internalType": "struct Types.AztecAsset",
          "name": "",
          "type": "tuple"
        },
        {
          "components": [
            {
              "internalType": "uint256",
              "name": "id",
              "type": "uint256"
            },
            {
              "internalType": "address",
              "name": "erc20Address",
              "type": "address"
            },
            {
              "internalType": "enum Types.AztecAssetType",
              "name": "assetType",
              "type": "uint8"
            }
          ],
          "internalType": "struct Types.AztecAsset",
          "name": "",
          "type": "tuple"
        },
        {
          "components": [
            {
              "internalType": "uint256",
              "name": "id",
              "type": "uint256"
            },
            {
              "internalType": "address",
              "name": "erc20Address",
              "type": "address"
            },
            {
              "internalType": "enum Types.AztecAssetType",
              "name": "assetType",
              "type": "uint8"
            }
          ],
          "internalType": "struct Types.AztecAsset",
          "name": "",
          "type": "tuple"
        },
        {
          "internalType": "uint256",
          "name": "",
          "type": "uint256"
        },
        {
          "internalType": "uint64",
          "name": "",
          "type": "uint64"
        }
      ],
      "name": "finalise",
      "outputs": [
        {
          "internalType": "uint256",
          "name": "",
          "type": "uint256"
        },
        {
          "internalType": "uint256",
          "name": "",
          "type": "uint256"
        }
      ],
      "stateMutability": "payable",
      "type": "function"
    },
    {
      "inputs": [],
      "name": "rollupProcessor",
      "outputs": [
        {
          "internalType": "address",
          "name": "",
          "type": "address"
        }
      ],
      "stateMutability": "view",
      "type": "function"
    },
    {
      "stateMutability": "payable",
      "type": "receive"
    }
  ],
  "bytecode": "0x60a060405234801561001057600080fd5b506040516105ac3803806105ac83398101604081905261002f91610066565b60609190911b6001600160601b031916608052600080546001600160a01b0319166001600160a01b039092169190911790556100b7565b60008060408385031215610078578182fd5b82516100838161009f565b60208401519092506100948161009f565b809150509250929050565b6001600160a01b03811681146100b457600080fd5b50565b60805160601c6104d46100d86000398060ec528061011d52506104d46000f3fe6080604052600436106100435760003560e01c80632a113d6e1461004f5780635254162b1461007a5780637224f4eb1461009c5780639b07d342146100c95761004a565b3661004a57005b600080fd5b34801561005b57600080fd5b506100646100ea565b60405161007191906103c0565b60405180910390f35b61008d61008836600461027c565b61010e565b60405161007193929190610486565b3480156100a857600080fd5b506100bc6100b7366004610390565b610231565b60405161007191906103d4565b6100dc6100d736600461030c565b610237565b604051610071929190610478565b7f000000000000000000000000000000000000000000000000000000000000000081565b60008080336001600160a01b037f000000000000000000000000000000000000000000000000000000000000000016146101635760405162461bcd60e51b815260040161015a906103df565b60405180910390fd5b506000600161017860608c0160408d01610256565b600381111561018357fe5b14156101a15760405162461bcd60e51b815260040161015a90610422565b60005460405163140e25ad60e31b81526001600160a01b039091169063a0712d68906101d190899060040161046f565b602060405180830381600087803b1580156101eb57600080fd5b505af11580156101ff573d6000803e3d6000fd5b505050506040513d601f19601f8201168201806040525081019061022391906103a8565b509750975097945050505050565b50600090565b600080600080fd5b600060608284031215610250578081fd5b50919050565b600060208284031215610267578081fd5b813560048110610275578182fd5b9392505050565b60008060008060008060006101e0888a031215610297578283fd5b6102a1898961023f565b96506102b08960608a0161023f565b95506102bf8960c08a0161023f565b94506102cf896101208a0161023f565b935061018088013592506101a088013591506101c088013567ffffffffffffffff811681146102fc578182fd5b8091505092959891949750929550565b6000806000806000806101c08789031215610325578182fd5b61032f888861023f565b955061033e886060890161023f565b945061034d8860c0890161023f565b935061035d88610120890161023f565b925061018087013591506101a087013567ffffffffffffffff81168114610382578182fd5b809150509295509295509295565b6000602082840312156103a1578081fd5b5035919050565b6000602082840312156103b9578081fd5b5051919050565b6001600160a01b0391909116815260200190565b901515815260200190565b60208082526023908201527f436f6d706f756e6445524332304272696467653a20494e56414c49445f43414c6040820152622622a960e91b606082015260800190565b6020808252602d908201527f436f6d706f756e6445524332304272696467653a20494e56414c49445f494e5060408201526c55545f41535345545f5459504560981b606082015260800190565b90815260200190565b918252602082015260400190565b9283526020830191909152151560408201526060019056fea2646970667358221220e78d328a5f95c36c53e3a17e649c81895fb5518ba3d9bfa4400a646690c30f9664736f6c634300060a0033",
  "linkReferences": {},
  "deployedLinkReferences": {}
}